:100000006F500049130000001300000013000000AF
:100010001300000013000000130000001300000094
:100020001300000013000000130000001300000084
:08003000130000007300100032
:100038006FF09FFC000000006F40107C6F40107C48
:1000480000000000000000000000000000000000A8
:100058000000000000000000000000000000000098
:100068006FF09FF9000000006FF01FF9000000001A
:100078006FF09FF86FF05FF86FF01FF86FF0DFF721
:100088006FF09FF76FF05FF76F4090436F409043BA
:100098006F4030456F4090456F4090456FF0DFF5F9
:1000A8006FF09FF56FF05FF56F4030736FF0DFF41E
:1000B8006FF09FF46FF05FF46F4050440000000051
:1000C8000000000000000000000000006F409042A7
:1000D8006F4010436F40D0466F4090496F40704F5B
:1000E8006F40F0596F40905B6F4070686FF0DFF0C1
:1000F8006FF09FF06FF05FF06FF01FF06FF0DFEFC1
:100108006FF09FEF6F4090696F4090696F40B06CDF
:100118006F40903E6FF05FEE6FF01FEE6FF0DFED17
:1001280000000000000000000000000000000000C7
:080138000000000000000000BF
:100140003D432A876373C3029377F700BDEFADE5A4
:10015000937606FF3D8ABA960CC34CC30CC74CC7B6
:100160004107E36BD7FE11E28280B306C3408A06E3
:100170009702000096966780A6002307B700A306A3
:10018000B7002306B700A305B7002305B700A304F3
:10019000B7002304B700A303B7002303B700A302EB
:1001A000B7002302B700A301B7002301B700A300E3
:1001B000B7002300B700828093F5F50F9396850072
:1001C000D58D93960501D58D61B79396270097023B
:1001D000000096968682E78086FA9680C1171D8F6A
:1001E0003E96E374C3F8A5B785667D567D15938664
:1001F00006776305C50241112317D1008357E1003B
:10020000C207C1831387F7FF420741832317E10029
:10021000F5F77D15E312C5FE4101828082808317C8
:10022000050063D7F5002310B500AE873E858280B8
:10023000E3DEC7FEB2872310C5003E8582804111F0
:100240001305900406C6EF60804313058004EF6039
:1002500000431305C002EF6080422145EF60204259
:10026000B240A945094541016F701002797113052B
:10027000900406D622D426D24AD04ECE52CC56CAAC
:100280005AC85EC6EF6040142A8413058004EF60EC
:10029000401DAA8B1305C002EF604026AA842145A9
:1002A000EF60602F2A8B330580404205930A400699
:1002B00041853305550337CA0000B7C9000037C967
:1002C000000013840184B3049040C204C184EFA0F1
:1002D000C07D83250A69EF90705383A54969EFA01B
:1002E000E01483258969EF907052EFA0E075231028
:1002F000A40033855B03EFA0407B83250A69EF9060
:10030000F05083A54969EFA0601283258969EF90B9
:10031000F04FEFA060732311A40033855403EFA0C6
:10032000C07883250A69EF90704E83A54969EFA0D4
:10033000E00F83258969EF90704DEFA0E0702312E4
:10034000A40033055B03EFA0407683250A69EF9094
:10035000F04B83A54969EFA0600D83258969EF9073
:10036000F04AEFA0606E2313A400B25022549254BE
:100370000259F249624AD24A424BB24B45618280ED
:100380009347F5FFFD877D8D2388A1848280797155
:1003900022D44ECE52CC56CA5AC806D626D24AD0FD
:1003A0005EC662C466C26AC0BE8AAA892E84328BC7
:1003B0003A8A85476353D000B687E207E18733075F
:1003C0008B40B34BF702635B700F6350641113F9FA
:1003D000F70F8144A28701453387F900030707001F
:1003E000B306F9003E9593978601E187BA94E3C579
:1003F00067FF638D0B0A33457503EFA0006BAA8C72
:1004000033C57403EFA0606A2A8D130C0000E28BE1
:100410002285EFA08069E685EFA0802AB387890056
:10042000AA84038507004A946204EFA00068EA8565
:10043000EFA00029A685EF90707FAA855E85EF90DA
:100440005006A685AA8B2685EF90507EAA856285E8
:10045000EF90300561842A8CE34C64FB9305000027
:10046000EF90F0659307000011C5E2855E85EF907F
:10047000F039AA872320FA00E6853E85EF90107BAD
:10048000AA856A85EFA0C023B250225423A0AA00F7
:1004900003250A0092540259F249624AD24A424B59
:1004A000B24B224C924C024D45618280EFA0E05F3E
:1004B000AA8C2685EFA0605F2A8D81BF93178701E4
:1004C000E187B34BF702E34464F1130D0000EA8CBB
:1004D000EA874DB75D7166D286C6A2C4A6C2CAC0FD
:1004E0004EDE52DC56DA5AD85ED662D46AD06ECE70
:1004F0002EC6B28C63DEC50CB7C7000083AD076A99
:10050000330AB50093040000B689528D3304C50048
:100510002689B38BC540094B930A800533078D406C
:10052000639809028307040003050A001D8D330543
:10053000E502334575033E9563536501094563D470
:10054000AA001305800562056185EFA00056AA8DFB
:1005500003050D00050DEFA04055EE85EFA04016F8
:100560002A8CAA854A85EF90C073E2852A89628524
:10057000EF90D06BAA852685EF90A072AA84E31F26
:10058000A4F9B2473385FC40EFA020522A84AA8503
:100590004A85EF90B0272A89A2852685EF901027FB
:1005A0002A84CA854A85EF907068AA852285EFA0C3
:1005B0002011B640264496440649F259625AD25A4E
:1005C000425BB25B225C925C025DF24D61618280B3
:1005D00093040000268975B713830193B307A30022
:1005E00083880700854763D7170B9307A005B307D8
:1005F000F502B72600209386468F46879305F00FB5
:100600000948C697B69739A0FD17630A070513175F
:100610008601618783C607001306F7FFE396B6FEDF
:1006200083C6F7FFF5F283C6E7FFF9FE2A939377B7
:10063000F60F139687019386419E1387819A83054F
:10064000F3FF6186AA962A972380C600230007003D
:1006500063DAC5021307F5FFA384E18025A01386A2
:10066000A184834506009386419EAA969387819A2A
:10067000AA9785052380E60005472380E70023002D
:10068000B6008947C6971387418F3A95858723001F
:10069000F50082809387419EAA9783870700DDB784
:1006A0009388419EB387A8000387070093078005BE
:1006B00063C9E7069307A005B307F502B726002034
:1006C0009386468F9305F00F13088005BA97B69767
:1006D00039A085076308070513178601618783C65C
:1006E000070013061700E396B6FE83C61700F5F25F
:1006F00083C62700F9FEB287AA98E2079386019382
:100700001387C1960386F8FFE187AA962A9723806C
:10071000F6002300070063D6C7007D15A384A180DF
:100720008280828013868184834506009387C196E8
:1007300093860193AA9685053E9585472380E6001A
:100740002300F5002300B600828051E183C7618059
:10075000930670051307800563E6F6003E87894718
:10076000634DF714B72700209387478FBA9783C646
:1007700007001306F00F8945638AC6006306B702B7
:10078000FD1783C607007D17E39AC6FE83C6F7FFF1
:10079000F5F683C6E7FFFDF27D171377F70F238287
:1007A000E19E2384019A29A89387A18483C6070028
:1007B0002382E19E850685452384B19A2380D70054
:1007C000838701933E970587238AE18E82809388F1
:1007D000419EB387A8008386F7FF894763C9F60C5B
:1007E0009307800563C2D70C1307A0053307E50202
:1007F000B72700209385478FB307B700B69703C686
:100800000700B307D700AE9725E61308F00F93054E
:10081000900521A003C60700BA861387160009E6D3
:1008200003C617006300060D8507E315B7FE13879F
:10083000A1848346070013068005AA989387819AAE
:100840008506AA972380C80005462300D700238089
:10085000C7009306800593870193AA970387070033
:100860009387418F3E95369705872300E500828068
:100870009305F00F054839A0FD176302070503C66D
:100880000700BA861387F6FFE318B6FE03C6F7FF24
:1008900065F6B387A8001377F70F2380E700894731
:1008A000638FF600BA8645BF9306800535BF89463B
:1008B00093078005E3DAD7F2C5BF094765B513870B
:1008C000A184834607000946AA989387819A8506E2
:1008D000AA972380C80005462300D7002380C700BD
:1008E000894695BFB387A8002380D700930780056A
:1008F000E393F6F62DBF59E183C761809306700537
:100900001307800563E6F6003E878947634DF714B9
:10091000B72700209387478FBA9783C6070013062F
:10092000F00F93058005638AC6006306B70285074A
:1009300083C607000507E39AC6FE83C61700F5F6CF
:1009400083C62700FDF205071377F70F2388E1928E
:100950002386019629A89387818483C6070023886C
:10096000E192850685452386B1962380D70083874B
:10097000419E3E970587238AE18E828013880193EA
:10098000B307A8008386F7FF894763C8F60C93076F
:10099000800563C1D70C1307A0053307E502B7270D
:1009A00000209385478F9308F00FB307B700B697E1
:1009B00003C60700B307D700AE9785456313160536
:1009C0009305F00F9308900539A085076307170B6F
:1009D00003C60700BA8613871600E318B6FE03C6DF
:1009E000170065F6B307A8001377F70F2380E70019
:1009F000930780056383F608BA8681A003C60700C3
:100A0000BA861387F6FF09E603C6F7FF630F1605DC
:100A1000FD17E315B7FE1387818483460700094657
:100A20002A989387C1968506AA972300C800054691
:100A30002300D7002380C70089461387419E2A9749
:100A4000030707009387418F3E953697058723005C
:100A5000E5008280930680053DBF894693078005A7
:100A6000E3DBD7F2C5BF094765B5B307A80023800C
:100A7000D7008947E393F6FC79BF138781848346C7
:100A80000700130680052A989387C1968506AA97C2
:100A90002300C80005462300D7002380C700930623
:100AA000800561BF411126C28387918006C622C49A
:100AB000635EF5002A8422853D3D2285313E050492
:100AC0008387918062046184E347F4FEB24022444C
:100AD00092444101828063180512838761801388E4
:100AE000418F130780056347F7121307A0053307EB
:100AF000E502372600201306468FBE861303F00F4B
:100B0000130E8005938816003E97329783450700A1
:100B1000638E6500638BC6030507834507009396C4
:100B20008801E18693881600E39665FE83451700E9
:100B3000F5F183452700F9FD93968801138701930A
:100B4000E1862A972300D7002DA09388818403C3D0
:100B5000080093850193AA951387C1962A970503E8
:100B60002380D50085462300D700238068009306A4
:100B700080050547635AF70A1307A0053307E50206
:100B80009308F00F09439385F7FF3E97329703468A
:100B90000700630E1601638F67027D170346070087
:100BA00093978501E1879385F7FFE31616FF0346C8
:100BB000F7FF75F20346E7FF79FE93F7F50F13870A
:100BC000419EBE962A97858642952300F700230012
:100BD000D50082809385A18483C805001386419E39
:100BE0002A961387819A2A9785082300F60085475D
:100BF0002300F700238015018947BE96429585861C
:100C00002300D50082801388418FB307A800838713
:100C1000F7FFC1BD138701932A9783060700372783
:100C200000201306478F89BF9387419EAA97838729
:100C30000700E1B741112385018422C42384018484
:100C400006C626C285472A84638AF5029DC183872A
:100C50009180635BF5002285BD3D0504838791800B
:100C600062046184E349F4FEB240224492444101AB
:100C700082802244B240924441012DB58387918005
:100C8000E354F5FE2285D1342285193C050483877F
:100C9000918062046184E347F4FEB24022449244AE
:100CA00041018280138701939387419E3308A700F7
:100CB000B386A70003080800838606006391053405
:100CC0009305700263CBA5580383E184A54563C6F1
:100CD0006558138E918583050E00639605189385DC
:100CE000C196AA9583850500639F05169305F500B7
:100CF0000943B72E002063D365008945130380059F
:100D00006354B300930580051303A0053383650284
:100D100093854E8F130FF00F9A95C29583C565FF8B
:100D20006393E51593055500094363D36500894531
:100D3000130380056354B30093058005130F380037
:100D4000094363536F00094F130380056354E301A4
:100D5000130F80051303A0053383650293854E8F1F
:100D6000930FF00F9A95FA9583C50500639DF50FD3
:100D7000130F1800894F9305F5FF7A836353FF0122
:100D80000943930F800563D46F0013038005930F0D
:100D9000A005B385F503938F4E8FFE959A9583C575
:100DA0000500F1E1930F280089429305E5FF7E835A
:100DB00063D35F0009439302800563D46200130389
:100DC00080059302A005B385550293824E8F9695B8
:100DD0009A9583C50500C1E9B305A70003833500D3
:100DE00063536F080383450063DF6F060383D5FFFA
:100DF000634B03079305A5FF094863D305018945A4
:100E0000130880056354B800930580059388019307
:100E1000C695838505006358B3042300AE002A8875
:100E2000330FA70001439303A00593824E8F15A0B3
:100E3000830FFFFF83050F007D1863D6BF48B305FE
:100E400078027D1F9695FE9583C51500639D054626
:100E500005439318880193D88841E34B10FD630440
:100E6000030023001E011387418783050700639653
:100E7000053E9385819AAA9583850500639F053C6D
:100E80009305F5000948B72E002063D30501894575
:100E9000130880056354B800930580051308A00566
:100EA0003388050393854E8F9308F00FC295B6954E
:100EB00083C5A5006393153B93055500094863D38B
:100EC00005018945130880056354B8009305800522
:100ED0009388D6FF094863D3080189481308800521
:100EE00063541801930880051308A005338805038F
:100EF00093854E8F1303F00FC295C69583C50500E9
:100F0000639D65349388F6FF09439305F5FF468892
:100F100063D3680009481303800563540301130871
:100F200080051303A005B385650213834E8F9A9540
:100F3000C29583C50500639205321383E6FF094E0F
:100F40009305E5FF1A886353C3010948130E800512
:100F500063540E0113088005130EA005B385C50365
:100F6000138E4E8FF295C29583C505006397052EAB
:100F7000B385A700038835006351182F0388450007
:100F8000635D682C8385D5FF63C9B62C9306A5FFE6
:100F9000094863D306018946130880056354D800C5
:100FA000930680051386419EB2968386060063D61B
:100FB000B62AAA862300A7003388A700130EA0052F
:100FC000014513834E8F15A08308F8FF0306080020
:100FD000FD16635F16293386C6037D181A9646965A
:100FE0000346F6FF63160628054593958601E185BD
:100FF000E34CB0FC630305262300B7008280054361
:10100000639D65240111551822CE26CC4ACA4EC8CC
:1010100052C656C41378F80F9305400463EC0511CB
:101020009382A18583860200B72E00208383918559
:10103000014F138EC1960544094313088005930F91
:10104000A005938E4E8F9304F00F9388019315495A
:1010500091496398062063D6A320B306C501838611
:101060000600639006209305B5FFB386C501038A89
:101070000600B306A7008386060063098A00BA95B6
:10108000038A05009385560063DD451D138A86009B
:10109000930AD5FF63536A00094A63544801130A4F
:1010A0008005B385FA03F695D29583C50500639A4A
:1010B000951A138A160063536A00094A635448015B
:1010C000130A8005B305F503F695D29583C505008F
:1010D00063990518BA9A038A0A009385360063D289
:1010E0004519B305A700038AC5FF9385460063DA57
:1010F00045179305350063D3650089456354B800EF
:1011000093058005C695838505008D8E634BD914A4
:10111000050F05059376FF0F6205139F8601618514
:10112000135F8F41E39936F33387A70083060700E7
:101130002380A200D51693F6F60F130740046366CA
:10114000D7109382518703870200B72E0020838334
:101150004187014F138E819A054409439308800506
:10116000930FA005938E4E8F9304F00F1386419E2C
:101170001549914965E763D3A30E3307C5010307FA
:10118000070069EF9306B5FF3387C60183050700A3
:101190003387A7000307070063898500BE96838510
:1011A00006009306B7FF63DBD50A930587FF130894
:1011B000D5FF63D36500894563D4B80093058005E6
:1011C000B306F803F696AE9683C6060063989608B3
:1011D0009305F7FF63D36500894563D4B800930591
:1011E0008005B306F503F696AE9683C60600BDE607
:1011F0003E98830508009306D7FF63D1D506B386D2
:10120000A7008385C6FF9306C7FF63D9D50493065D
:10121000350063D36600894663D4D8009306800501
:10122000B296838606003387E6406349E902050FDC
:1012300005051377FF0F6205131F87016185135F93
:101240008F41E31A37F32380A2007244E2445249EB
:10125000C249324AA24A056182808280E3070FFEBA
:10126000DDB73387A70083060700E3050FEC6DBDEC
:1012700019C12300B7008345070001459308A00565
:10128000938E4E8F09A8B3861603F696C29683C630
:10129000F6FF95E6054513968501618693061600CF
:1012A0003388D7003383C7008505635AC00003081D
:1012B00008000303030093F5F50FE34603FD51DD3A
:1012C0002300C70082806304030023001E018348BB
:1012D0000E000143930FA005938E4E8F09A8B3858E
:1012E000F503F695FA9583C515009DE5054313981A
:1012F00088011358884193051800330FB700B302D3
:1013000007018508635A0001030F0F008382020062
:1013100093F8F80FE3455FFCE30703B423000E01E5
:1013200099B64111A38A018622C426C24AC006C6C4
:10133000238D018411449304200309A805049377A5
:10134000F40F1394870161846382970283879180ED
:10135000E356F4FE228585450504EFF0BF949377AC
:10136000F40F139487016184E39297FEB240224404
:10137000924402494101828079715EC6938BB185A6
:101380004ECE52CC56CA5AC883870B00138A918519
:10139000938AA18593894187138B518706D622D4DE
:1013A00026D24AD062C466C223000A0023800A0003
:1013B0002380090023000B0005476383E766094784
:1013C000E387E71A09449304D00209A80504937738
:1013D000F40F13948701618463829702838791805D
:1013E000E356F4FE228581450504EFF0BF8B937729
:1013F000F40F139487016184E39297FE1D3703076E
:101400000A008387090063060724638507388386FB
:101410000A0091CA83060B0099C6B307F7409107EB
:10142000A146E3FAF64C83870B00938C5185138C0D
:10143000A18403060C00A94663DCC624930670024F
:1014400063C8E62483860A0063920674630C072847
:1014500083860900E3840650998E1146E357D60A25
:1014600085466389D72685472380FB003A852384F8
:10147000018423000C00EFF0EFE283870B00639BF5
:10148000072403060A006302062683870A000385F1
:101490000900638E0730138401933307C4003E9420
:1014A000030707008305040085460D8F63DFE62EE2
:1014B0006304052403070B00630307309384419EF4
:1014C000B386E400AA948386060003880400854559
:1014D000B386064163D3D52E6383072EB385E740D9
:1014E000A14663D4B67023800A00631906646319A9
:1014F000056403060A008387090095E383870A00D1
:1015000003070B006387076C19EB13840193A29701
:1015100003870700CD4763C4E70023800A00838662
:101520000C006398062493872188038707006310C3
:101530000730635DC07203870A00635EE07C038549
:101540000900635AA07C03070B006356E07C838686
:10155000818429476351D77C83060C00635DD77A69
:10156000370700200307B70BB72600209386468F66
:10157000BA9605673697834627FD1307F00F639CDD
:10158000E678138711888546830507002380D700F6
:101590002380DC00A382018085462548634EB86A1B
:1015A00023000700E38C062A8385D1849946E3CB88
:1015B000B6348385E184914663CAB600B70600203D
:1015C0008386960B9305C003E384B63403080700B3
:1015D000A545838607000385090063D50501854578
:1015E000638AB66281EA9387518003C707000507C3
:1015F0002380E7006302063883870A00638107447B
:1016000003070B00E30E0514631707381307D5FF14
:1016100089466353D70009479306800563D4E600E3
:10162000130780059386819A3697030707006304A2
:101630000736AA97918F8907094763D3E70089473F
:10164000130780056354F700930780052300FB0010
:1016500099A6E39A07DC83070B006386075A838702
:101660000900938C518583C60C00D58FE207E18772
:1016700099E7838651808947014563C2D72E138C31
:10168000A18403060C00A94683870B00E3C8C6DAD1
:101690001384818403060400A946E3D2C6DE0385D1
:1016A000090093067002E3CCA6DC631E0762038781
:1016B0000A00E318071C03070B00E30D0728054782
:1016C0006393E76001C903870A00E31E071A054711
:1016D000E391E71CB93103060A00E31806DA31A0EA
:1016E00083870B00E5FB03060A0003850900838757
:1016F0000A00E31105DCD5CF03070B000145E31F0A
:1017000007DC83870A003E85630C064EAA87030523
:101710000A0003870900638E074283060A006319E3
:101720000730A1C313840193A2963E940387060059
:1017300003060400F946118FE3CAE61203070B0003
:101740000DC39384419E269783060700138401935B
:10175000A2978387070063C6F60023000B0023804F
:101760000A0003060A00E30806D883860C00E38C0F
:1017700006DA0547639DE60A93872188838607007A
:101780006383E60C138711888385D1849946E3D25D
:10179000B6E22DBD83070B00E39707C883870A00D5
:1017A000E38307C823800B00BDB923800A006316BA
:1017B0000528E30006D4AA8799BF23000B0011C2B5
:1017C00039D5638F073603070B000DE713840193A8
:1017D0009384419E2296AA94030706008386040000
:1017E0003E9403060400BA9613D7F6013697058790
:1017F000E34BE61883060A0003870900E39F06F01F
:101800006300074083060B00A9DE9384419EA696E1
:101810002697838606000307070079463387E6404C
:10182000E352E60423800B0023000B001DBF038757
:101830005180954763C5E712938721888385070008
:1018400005476390E54203850900138711883368D3
:10185000C50083050700E31208D483880A002948DD
:10186000E34D18D383080B00E34918D38505230003
:10187000B700E38D06D409BFB2859384419E1387D8
:10188000018785469387C1861385419E1389018709
:10189000EFE0FFAF03840900930720031305200343
:1018A0002300FB00018DEF90402083250900EF808D
:1018B000F037EF906019B387840083C60700135791
:1018C000F541B347A700998F83080A00B69723898B
:1018D000F4026386080003870A006314071E41C0F0
:1018E00003070B002DCF9387419EB306F400330608
:1018F000F70083880600030E06006352E4063303F4
:10190000E440B388C841338868027D171385170007
:10191000B3078740229593F7F70F938501931386BA
:10192000418FA29522963E95094F930E8005B347AD
:1019300068024698F29763D3E701894763D4FE00B3
:1019400093078005038705002380F6008506BA9774
:1019500085872300F60085050506E31AD5FCB250FD
:10196000225492540259F249624AD24A424BB24B33
:10197000224C924C456182806309051003070B00DD
:101980006318076483070A0099E783850A00639454
:1019900005546300051003060A006313061003864E
:1019A000090003070B006312074A9377F60F93852C
:1019B000F7FFE205E1859384419EE352B0EC138585
:1019C000819A3387A500830607000547E386E6EA88
:1019D0009384419E3387B400830607000947E35987
:1019E000D7001387E7FF62076187B386E4000548E5
:1019F0002A97894821A8830707007D17E38107E913
:101A000083870600FD16E3DCF8E6AA859387F5FFD9
:101A100093F7F70F139587016185F1FF814585B530
:101A200001452385018423840184EFF0AF8759BAEF
:101A3000E39607D003060A00DDB48147A5BC31C98F
:101A400083070B00A1D31307D6FF89466353D70042
:101A500009479306800563D4E60013078005938643
:101A6000C1963697030707001DD7B297898F89075C
:101A7000094763D3E7008947130780056354F700DC
:101A8000930780052380FA0039B783850A006394A1
:101A9000054483050B006391053C03060A0009CA4F
:101AA00083870A00638B072C03860900E31B06EE7D
:101AB00083080A00E38508EA03870A00E30107EACE
:101AC000014493870193B386F8003306F70003833C
:101AD0000600830E0600E3D4E8E0338EE8403303CB
:101AE000D3413308C3037D1713851700B30717418C
:101AF000469593F7F70F9385419E1386418FC695C0
:101B000046963E95094F93088005B347C8031A9837
:101B1000F69763D3E701894763D4F80093078005FC
:101B2000038705002380F6008506BA978587230082
:101B3000F60085050506E31AD5FC55B3630E05527C
:101B400083070A000387090081E7E31D07CA55B22E
:101B50003E8583070B0095C79384419E13840193B0
:101B60003386E4002A948305060083060400A697C2
:101B700003860700AE9693D7F601B697858763C9AB
:101B8000C75283870A0083060A0051BE8386090074
:101B9000E39E068A83060B0063800654E30407B4C1
:101BA00083060B006396066003070A00838609001C
:101BB000E394068A8946E38FD7B0894785453A85FD
:101BC0002380FB00EFF00F8783870B00E38B078AEE
:101BD00011B69384419EBA948385040093066004F1
:101BE000E3D4B69223000B000DB21D8F83870A0049
:101BF00063D4E60023000B00E31406BCE31305BC2A
:101C0000E39E07B2FDB083860A00E39C06A423800E
:101C10000B00B1B48386D184B145E3CDD59C8385D7
:101C20000A00A94803080B0063DFB85003888184C9
:101C3000B945E3C1059D83050C003948E34CB89ACA
:101C40009145E3C9D59A2300070023800C00238027
:101C5000070023800B0041BA6397063E8386070086
:101C6000BDBA13871188E383069639BE038709003E
:101C700039E26352E00483060B00635ED002838581
:101C8000818479476359B702138756009305A005ED
:101C90003307B7029384419EA69603850600B726B4
:101CA00000209386468F9305F00F36972A970347B7
:101CB000A7006305B70A838651801547E341D7CA59
:101CC0001387118821B22380EB0023000C0023002E
:101CD0000400EFE03FDD03070A0003850900838766
:101CE0000B006309074615C1098F914663DFE600C3
:101CF0000947E381E79E85452380EB00EFE09FF3F2
:101D000083870B00638F07F6F1B2E395079C030608
:101D10000A006FF08FF70387090039FB83860A00FA
:101D2000E35BD0F883050C007947E356B7F81387D7
:101D300056009305A0053307B70213840193A296BA
:101D400003850600B72600209386468F9305F00F83
:101D500036972A97034767FFE31FB7F405472380A9
:101D6000E7002380EC00A38201808546E9BC85451D
:101D70000145EFE03FEC6FF0EFE49377F60F9385CA
:101D8000F7FFE205E185138401936354B0061385E0
:101D9000C1963387A500830607000547638FE64495
:101DA000138401933307B4008306070013077005FB
:101DB0006343D7441387E7FF62076187B306E400F4
:101DC00085482A971303700521A8830707007D170C
:101DD0006381170383870600FD16634CF300AA8511
:101DE0009387F5FF93F7F70F139587016185F1FF4F
:101DF0008145138701878546138501939387C186A3
:101E000013890187EFE0AFD883070A001307200387
:101E1000130520032380EA001D8DB304F400EF8036
:101E2000D04883250900EF806060EF80F041935631
:101E3000F54103C70400B3C7A600958FB307F74069
:101E4000038609002309F40295B183080A0003847C
:101E50000900E38A08A841B41386550062069387F7
:101E6000C18613870187854661861385419E138449
:101E7000C186EFE0CFD183070B009384419E0040E1
:101E8000A6970389070085472380F9004A85EF80DC
:101E9000D041A285EF8060486351A0022285EF8087
:101EA000B03A89476347F5029307800563D4A700DA
:101EB00013058005A380A400F9BC13151900EF8059
:101EC000D03EA285EF80C07FEF8010388947E35D68
:101ED000F5FC0945D1BF13840193138655006206B2
:101EE0009387C18613870187854661861385019391
:101EF0009384C186EFE0AFC983870A008440A2972C
:101F00000389070085472300FA004A85EF80F039EE
:101F1000A685EF80E048635705022685EF80D03222
:101F20008947634DF5029307800563D4A700130525
:101F3000800583870900A300A400E38C07B403068F
:101F40000A00B9BE13151900EF803036A685EF8060
:101F50002077EF80702F8947E357F5FC0945E1B7FB
:101F6000E30907B29384419EB386E40083850600AB
:101F70008386560015488D8E13D5F641A98E898E1D
:101F8000E359D8B032971D8F89466353D70009476C
:101F90009306800563D4E60013078005138401933C
:101FA000A29783870700229683060600AE972380B8
:101FB000E900958F8946269763D3D7008947930612
:101FC000800563D4F600930780052300F700E1B293
:101FD00083850A00E381059C13840193B307B40051
:101FE00083860700838757009548958F13D6F7415E
:101FF000B18F918FE3D3F8EEB387A500998F09468F
:1020000063D3C7008947130680056354F60093071E
:1020100080059384419E26970307070026950306B3
:10202000050036972300FA00118F8946A297635363
:10203000D70009479306800563D4E600130780059F
:102040002380E70089BA8385D184994663D3B6D6C5
:1020500083860700038509006FF06FD88386070029
:102060006FF04FD8638F07EE6FF04FEE23800B00B9
:1020700023800A006FF0EFEE03050A0003870900D2
:10208000C9BC630105E603070B00630207E4639024
:10209000071485472380FB0023000C002300040065
:1020A000EFE05FA083870B00638D07BC6FF08FE2CA
:1020B000894785452380FB00EFE0DFB7EFF06FA68F
:1020C00083060A00638E06140387090083870A00CB
:1020D000E31007966FF0EFE48946E381D7AC3A85C9
:1020E00085452380DB00EFE0FFB403070A00838708
:1020F0000B006FF0AFB523800B008147938C5185A7
:102100006FF0EFB283860700038509006FF08FCD73
:10211000B70500208385A50B639AD5CA8385818482
:10212000A54663D6B60083050C0063C1B6CA23007A
:10213000070023800C002380070023800B00038509
:1021400009006FF04FCA3363A60063100302E3DC9B
:1021500008AFE9BC630805D86FF0EFD683860A00A4
:10216000E39006A403070A00B1B4B3E505010388B0
:102170008184E39F05AAA548E3CC08AB83050C0046
:10218000E3D3B8AC5DBC85472380FB002384018486
:1021900023000C00EFE01F91EFF0AF9803050A0059
:1021A00083870A0003870900630C05E46FF06FD68C
:1021B000A9EB8387090003070A00E38007A0998F32
:1021C000914663C2F6AA03060A006FF00FAC894578
:1021D00023800B00EFE01FA603070A000385090018
:1021E00083870B00E31107B0631305CE6FF08FCF29
:1021F000B2856FF0CFE8B285EDBEB285138401934E
:10220000CDBE3A85894523800B00EFE0BFA20307CE
:102210000A00630707CC8386090083870B0049BA4D
:1022200083870A00038709006FF08FDD9307F6FFAD
:1022300013D3F7013E93011113531340131E83016F
:1022400022CE26CC4ACA4EC852C6135E8E41638146
:1022500006143307604062076187B303E300BA875F
:1022600063CBE308B38265400948968963C10215D0
:1022700013088005634A38139304A005338A990232
:10228000B72F002013884F8F094F930E8005FD1242
:102290003304A300938F4F8F1309F00F429AAA972C
:1022A00063D3E701894763D4FE00930780053308B1
:1022B000FA0003480800631A0802168863D3E20193
:1022C000094863D40E0113088005A2886353E40112
:1022D000894863D41E0193088005330898027E98CC
:1022E00046980348080063002819050762076187BC
:1022F000BA87E3D6E3FA8547638AF60C894763D148
:10230000C7081A95634EF50A9307800563C7A70AA5
:10231000B72F0020338F654013884F8F0547894EB4
:10232000930880051306A0057D1F938F4F8F93029E
:10233000F00FB307B700B387674063D3D70189476E
:1023400063D4F80093078005B386C702C296AA96A5
:1023500083C606008DE2FA866353DF01894663D4A3
:10236000D80093068005B386C602FE96AA9683C659
:10237000060063865610050762076187E35BEEFA85
:1023800001457244E2445249C249324A05618280A1
:102390009A8301478147E34306F6B38265400948C3
:1023A0009689E3D702ED21A093098005F1B589490B
:1023B00013088005E35238EDC5BF1305800589BFBA
:1023C000094593078005E3D5A7F4C5BF8947E3D93D
:1023D000C7FA330565406342F5089307800563CB70
:1023E000A706B72F0020B382654013884F8F36872A
:1023F000094F930E80059308A005FD12938F4F8F10
:102400009303F00FB307B700B387674063D3E701C7
:10241000894763D4FE0093078005338617034296ED
:102420002A96034606000DE2168663D3E2010946AA
:1024300063D4CE0013068005330616037E962A96D3
:102440000346060063037604050762076187E35BC2
:10245000EEFA3DB71305800569B709459307800576
:10246000E3D1A7F8C5BF72442382F188A3823189E2
:10247000E2445249C249324A0545056182802382BD
:10248000A188A382F1880545EDBD2382A188A3829E
:10249000F1883685FDB55971B70700209387B70BD2
:1024A00086D6A2D4A6D2CAD0CECED2CCD6CADAC8CC
:1024B000DEC6E2C4E6C2EAC06EDE3EC48387070021
:1024C00009479388170063D3E800894813078005FC
:1024D000635417019308800509473E8863D3E700DA
:1024E0000948130780056354070113088005B72DB9
:1024F0000020138D4D8FB3060D0195451303700316
:1025000001A8931587019386A605E18563066736C2
:1025100003C5261C338706413306170113871500B0
:102520001377F70F79FD0346261C61FE938C4188D3
:10253000138C51882380FC002300BC00130420036B
:1025400089443E8521A883050C007D141374F40F83
:1025500003850C0063D2B4346300043481460D4615
:10256000F13175F183050C0003850C008146154699
:10257000753971F983050C0003850C0081461D46F1
:10258000753171F183050C0083870C0039A6631344
:1025900008502247830A07000947938F8AFF63D3B5
:1025A000EF00894F130780056354F701930F8005EF
:1025B00093848A00094763D3E400894413078005A4
:1025C0006354970093048005B3065D01154593029B
:1025D000F00F9303700383C8261C338656411307FC
:1025E00015003303F6011377F70F638A5800834809
:1025F000E3102696638508000346E61011EA1315DA
:1026000087019386A6056185E31777FC13057003A0
:102610003EC4630D0E546309085463190454938631
:10262000419E13870193C2967297038906008346E1
:1026300007003306C84133070E41B38626419399FC
:10264000860193168601E18672D042CA2D07D94EC3
:1026500036C893D9894163E1EE2213077003630DF5
:10266000E5202947635AB7206245EF70605C2A84F1
:102670004E85AE84EF70C05B2A8B4A85AE8BEF70BF
:10268000205BC2462ACC2ECE3685EF70605A37C703
:1026900000000326876A8326C76A2A89AE895A857D
:1026A000DE85EF6010136246F246EF60A0024A86B4
:1026B000CE86EF6020022A86AE862285A685EF6050
:1026C000007B634BA01A37C700000326076B8326E5
:1026D000476B5A85DE85EF60D00F6246F246EF50B9
:1026E000707F4A86CE86EF50F07E2A86AE8622859F
:1026F000A685EF60B0026341051805676A978346B7
:10270000171C0347F7FF1306F00F758F6306C716F4
:10271000B247094652481387D7FFBA86025EA247DE
:102720006353C7008946130680056354D600930699
:1027300080051306A0053386C60293854D8F9386C8
:1027400067FF3685938FF700094F930E80052E960D
:10275000AA856353E5018945150563D4BE00930539
:102760008005B29583C5050063880510E392AFFE2E
:102770001386A70089476353F6000946930780052F
:1027800063D4C700130680059307A005B307F702BB
:1027900093854D8F1305F00FAE97B29783C707004F
:1027A000639CA70C894763D3F6008946930780058D
:1027B00063D4D700930680059307A005B307F702FB
:1027C000938D4D8F1307F00FEE97B69783C70700D1
:1027D0006394E70A83874185054723000C00238023
:1027E0000C002300EA0099EBB70700209387870BC2
:1027F00003870700133717002380E70013849186AF
:102800008347040005478507E207E1872300F400BA
:10281000634EF7029387AA00E207E18713837AFFEA
:102820000146954563C267583307FD008346A705F7
:10283000FD1713071600E207E1871377F70F639E72
:10284000065413168701618663F9E5549387418521
:102850000387070023000A00133717002380E700CF
:10286000A38B0184238C01842300040023000C002B
:1028700023800C00238B0184B650265496540659AD
:10288000F649664AD64A464BB64B264C964C064D00
:10289000F25D014565618280AA87130420038944A3
:1028A0003E8519A883050C007D141374F40F03856D
:1028B0000C0063DFB4020DCC85460D46EFF01F9788
:1028C00075F183050C0003850C0085461546EFF075
:1028D000FF9569F983050C0003850C0085461D46AC
:1028E000EFF0DF9461F183050C0083870C0011A0E9
:1028F000AA871387E5FF9306A0053307D7022EC6E4
:102900006A973E970346B7FF631F061C23000C001F
:1029100023800C00ED5202C68145814702CC13078B
:1029200080059683634E571A1384019322C813843B
:10293000519322D01384B19222D21384419E22CA91
:102940001384919EE20322D41384F19D93D3834197
:102950001386B19A9388519E9386F19613851193AD
:102960000D470148014E094F93098005930FA005BB
:1029700013894D8F138BC196938A819A22D6931E09
:10298000870193DE8E4163405F06138A318503041D
:102990000A00630D0E0EE31E04BE1376FE0F9306AF
:1029A0003600E206E1862547E343D7BE138701934D
:1029B000BA960385060083861600E3CFA6EA9946F9
:1029C000918E110693F6F60F62066186BA96B2965C
:1029D0003297E38EE6BA0306170005070305F7FFF3
:1029E000E359A6FE51BDE3D27EFA03C3060033636A
:1029F0006E00620313538341631E03020304250028
:102A00009304340063D3E401894463D499009304AC
:102A100080053303F703014E4A93269303430300D3
:102A2000631A0300030355006356640003030500A3
:102A30006359832C03430600336368006203135316
:102A40008341631F0302038428009304D4FF63D3EC
:102A5000E401894463D49900930480053303F703A8
:102A600001484A93269303430300631B03008384B6
:102A700058001A8863D6840083840800635E941E1D
:102A800005070506850885060505D5BDE30308B0DD
:102A9000E31104B01376F80F93063600E206E186E0
:102AA0002547E348D7AE1387419EBA9603850600B3
:102AB00083861600E342D5DC9946918E110693F683
:102AC000F60F62066186BA96B2963297E383E6AC59
:102AD0000306170005070305F7FFE359C5FE69BBA9
:102AE0009303800591B503475700E30107E2938202
:102AF000B5FF63870748638A05283388D5021387A3
:102B0000F7FF138E17FF139F17000145814613032C
:102B100070059308F00F894E6A9891EE3306EF40E6
:102B20006340C32C6353D6010946B30FC80083CF5B
:102B30000F00638F1F250DE1634DE3283A86635331
:102B4000D7010946B30FC80083CF0F0063961F015A
:102B500005061315860161857D17E310EEFCAA9624
:102B600013D716403ACC65BBE30804D08547E3157C
:102B7000F4D09547E3D4B7C803878184A54763C6DB
:102B8000E7000387A184E3DBE7C683870C00130714
:102B900050056357F7041387E5FF9306800563D458
:102BA000E600130780059306A0053307D702938636
:102BB0004D8F36970347870505E71387D5FF9306A3
:102BC000800563D4E600130780059306A00533074C
:102BD000D70293864D8F369703478705E30007C2D8
:102BE00063DF57071387E5FF9306800563D4E6008C
:102BF000130780059386B7FF094663D3C60089464D
:102C0000130680056354D600930680051306A005BD
:102C10003307C70213864D8F329736970347070055
:102C20001DEFF515130780056354B7009305800564
:102C3000E117094763D3E700894713078005635409
:102C4000F700930780051307A005B385E5021387F6
:102C50004D8F2E97BA9783C70700E38107BAB7074E
:102C600000208387970B1307C0036383E730138427
:102C700091862300040079BED2441304F7FF338306
:102C8000E40033888A00030808009384FEFF631879
:102C90000802030AF3FF030803007D13635148038E
:102CA0003308F4037D146A9852980348E8FF6318C8
:102CB0000800939E840193DE8E41E3940EFCA2549F
:102CC000524433839E00B254769403430300338806
:102CD0009E008344040003440800014833039340EA
:102CE000058C6203620413538341618433038302BE
:102CF000E35860D833A8BE003308004133F80E0112
:102D000041B342449304F7FF768E3A9433039B0019
:102D100003030300130AFEFF63180302830BF4FF8F
:102D2000030304007D1463D16B023383F403FD14A9
:102D30006A935E930343230063180300131E8A0102
:102D4000135E8E41E3140EFC4244B304C4010254EA
:102D500083C4040033038E001254034303007294AF
:102D600003440400330393406203058C620413534D
:102D70008341618433038302635B60043323BE00B9
:102D800033036040337E6E0075B102CC2EC641BE67
:102D90007D1693168601E18679BBE3D767A8030702
:102DA0000A008547E31AF7AC8D4763C3C705631074
:102DB0000804631B0E1C93847185038E0400635CFE
:102DC000C0199307FEFF2380F40072880DA8014EFE
:102DD00095B103468805E31116D913059005ADBBDF
:102DE00003468805E31916D593067005A9B3428EEC
:102DF000938471852380C4018D4763D50719138996
:102E000081852300090103874180854703830C00E6
:102E100003050C006301F70C9383419EB387030104
:102E200003870700635FA804330F6740B30EA84011
:102E3000B305DF03138601939386418F4296C296B2
:102E40008942930F80050508B3C7D503620813585C
:102E50008841B3880301FA959A9763D3570089474D
:102E600063D4FF00930780053E9705872300F60093
:102E70002380E60005068506630505010387080033
:102E8000D9B779156205238501846185238401847E
:102E9000EFD05FC103070C00F54763D8E700038755
:102EA0000C0093076004E3D9E79CB7070020038771
:102EB000870B8547E312F79C9387418503870700BB
:102EC00023000A0023800400133717002380E70043
:102ED0002300090051BA93860193F296838E06006F
:102EE0006354AE06330FAE40B38E6E40B385EE032F
:102EF000938711931308F5FF3387C7013308C8413F
:102F00001378F80F1386419E9387418F72963A98F3
:102F10003E9E8942930F8005B3C7E503F6959A97C5
:102F200063D35700894763D4FF00930780050307E5
:102F300006002380F6008506BA9785872300FE00E9
:102F40000506050EE31AD8FC7915620585456185ED
:102F5000EFD05FCE81B763170E0213898185030816
:102F60000900E35200EB9307F8FF2300F90061BD6D
:102F7000370700200307A70BE31BF7CE6FF01F886E
:102F800002CC71BA7288A5BD938471852380C40177
:102F90007288B5B5B72E0020014793884E8F13086D
:102FA000A0051303F00F8942938F4E8F0D4F130E20
:102FB0001003B3070703BA86050762076187C69740
:102FC000AA9783C7070063856700E354EEFE8280FB
:102FD00093871600B3870703C697AA9783C707008E
:102FE000EDF793872600B3870703C697AA9783C791
:102FF0000700E1FF93874600B3870703C697AA97A8
:1030000083C70700F9F393878600B3870703C69742
:10301000AA9783C70700D5FBC10663C55604B386CC
:103020000603B387F601AA9783C7070099C7E3523F
:10303000EEF871BF050762076187B387E5008386F5
:10304000070083871700958FE346FFFEB307E6006E
:103050008383070063820302050762076187E35ADF
:10306000EEF4B5B78946B3860603B387F601AA978F
:1030700083C70700CDFFD1B78387B7FFADCF938557
:10308000B6FF09469307270063D3C5008945130699
:1030900080056354B600930580051306A0053386AA
:1030A000C70213854E8F1308F00F2A962E960346FB
:1030B0000600631D06031386560089456353B60058
:1030C00009469305800563D4C50013068005930562
:1030D000A005B387B702938E4E8F9305F00FBE9E67
:1030E000B387CE0083C707006387B7002382D188E8
:1030F000A382E18882800D472389E184828039712F
:103100004AD826DA06DE22DC4ED652D456D25AD01F
:103110005ECE62CC66CA6AC86EC613890188030790
:10312000090093842185838704000DE70387818448
:1031300025466341E6029386A18483850600634B9E
:10314000B600639E074A0386D184B94763C9C71492
:103150003A88A5A66384071605476383E7340947C1
:103160006383E7360D476385E7220304090063158F
:10317000041C838A5188CD4763D6571F93F7FA0FF3
:10318000138B5700A907939C8701620B135B8B413C
:1031900093DC8C419387C1861387018785466686B9
:1031A000DA8513850193EFD08F9E138AC18603259C
:1031B0000A0013895A0093840193EF70F008B30753
:1031C000990062056185038E07006355604BB30E5D
:1031D000C541B30B604133837E03938A418F138CC7
:1031E000419E1386418F9388419E9385019381462A
:1031F000094F13088005B34773038506E206E1868D
:103200007693F29763D3E70189476354F8009307F5
:103210008005038708002380F5008508BA97858715
:103220002300F60085050506E3C766FD854666862C
:10323000DA859387C186138701871385419EEFD076
:103240000F9503250A00938F419E7E99030909007B
:10325000EF70807F13168501618633062641B386A1
:10326000CB02094593058005050462046184B3C758
:103270007603B296CA9763D3A700894763D4F50053
:1032800093078005038704002300FC008504BA9798
:1032900085872380FA00050C850AE34764FDF25018
:1032A0006254D2544259B259225A925A025BF24B9A
:1032B000624CD24C424DB24D216182800387D18451
:1032C000B947E3CEE7FC03888184CD4763D5071F68
:1032D0005147E306E8FC0387A184E3C2E7FC856766
:1032E000B72800209388488F938677ADF507C69658
:1032F0001306F00FBE981543938746FC814521A025
:1033000085076384F60203C70700E31BC7FE03C7F4
:1033100017007DF703C727001385150075F3931574
:1033200085018507E185E390F6FE6343B33293861A
:10333000E610E393D8FCA5B793873188038707008D
:103340001DCB838711850947038604006387E7182F
:1033500013078005638BE7209547E312F6F4A383F8
:10336000018835BFA54763CC573585472300F90051
:10337000238004002DB78386518813079002E34011
:10338000D7F205472380E7001D472384E18655BF18
:10339000372700201307179281461308F00F930573
:1033A000200301A8939687011307A705E186638090
:1033B000B70E034607009387160093F7F70FE31342
:1033C00006FF0346470B79FE0346871661FE034658
:1033D000072D69FA0346075A71F69387160093F78B
:1033E000F70F1387D7FF1306A0053307C702B726C9
:1033F00000209386468F1305D002938941889395C8
:1034000087012380A900E185369703451704138AB5
:1034100051882300BA00630A051F1305D002130464
:10342000200309A87D141374F40F03850900830594
:103430000A001DC081460D46EFE05FDF65F583059C
:103440000A000385090081461546EFE03FDE79F961
:103450000385090083050A001304200311A87D14C5
:103460001374F40FE30304D00385090083050A00F5
:1034700085460D46EFE09FDB7DF183050A0003855D
:10348000090085461546EFE07FDA71F9F9B99389AD
:103490004188138A51880385090083050A0041B7D2
:1034A0001386C1969385019313058005EFF09FAEB7
:1034B0008387040045B99386A18403870600D1471A
:1034C000E3DFE7DC29BD1386819A9385419E094598
:1034D000EFF05FAC8387040071B103875188A9477F
:1034E000E3DCE7E6838E4188E3D8D7E78D476302C4
:1034F000F61C13880193130EF7FF137FFE0F93063C
:103500001800FA9693870193930580052380B700EE
:103510008507E39DF6FE09433303D3413305E040BD
:10352000B308A3029386419E138E16007A9E93855C
:10353000418F894F130F8005B3C7A8029A98F69759
:1035400063D3F70189476354FF009307800503079E
:1035500008002380F6008506BA9785872380F5004A
:1035600005088505E31ADEFCC5BB83885188A94799
:10357000E3D417DF838E41889307F004E3CED7DDD1
:103580008D476302F6121385419E138EF8FF137F59
:10359000FE0F130715007A979387419E8946238073
:1035A000D7008507E39DE7FE130380053303D3416E
:1035B000B30810413308130393860193138E16004A
:1035C0007A9E9385418F894F130F8005B347180367
:1035D0001A98F69763D3F70189476354FF0093075E
:1035E0008005030705002380F6008506BA978587C6
:1035F0002380F50005058505E31ADEFCB1BB854790
:10360000238004002300F90059B98348970113056A
:10361000D002E39608E183482703E39208E10347D9
:103620008702E31E07DF8D073387C70236970347FC
:103630001704E31607DE1307A005B387E702B69762
:1036400083C79701E39D07DC95472380F400C1BB46
:10365000D14763D9070185472380F4000947A38830
:10366000E18435B989472380F40013078005A388D6
:10367000E18435B16254F250D2544259225A925ADE
:10368000F24B624CB24D9387C18613870187B259C2
:10369000424D6686DA85D24C025B85461385419E93
:1036A00021616FC0DFCE0387A184A547E3D9E7BEC0
:1036B000D9BD83868184A547E3D3D7BE1DBD93873B
:1036C000C1861387018785467946E54513850193B1
:1036D000EFC0FFCB138AC18603250A0093840193B0
:1036E0006549EF7060366205F94C6185038E94017F
:1036F000654BF1BC03879180130680028397E188B4
:10370000BA866354E60093068002E2061306700C44
:10371000E186634BF60063560700FD162388D184CB
:1037200082802388018482801306F0186342F602A7
:103730001306900F6347F602138587F395473345C9
:10374000F502290562056185E3C9A6FC6FC05FC368
:1037500093077002E3D3E7FC130780022388E18418
:1037600082801306B012634BF6001385A7F60D8511
:10377000290562056185E3DBA6FC45B71306F01356
:10378000635AF60013063015634AF600138527F9CD
:10379000A94775B7138587F8A94755B7130670165B
:1037A0006346F6001385C7F9A94751BF1306B01742
:1037B0006346F6001385D702BD4751B79307500201
:1037C000E3DDE7F4130760022388E18482800111BE
:1037D00022CC138431858307040006CE26CA4AC84A
:1037E0004EC6B9E31389418583070900B5EF838786
:1037F0002185A9EB8387C18495C7938451858387ED
:103800000400BDEB030704008387040025C7B9E368
:103810006244F240D2444249B2490947A387E18455
:103820000561C9BDEFD05FB59384518583870400DE
:1038300099EF83872185F9F78387C184E1F7EFE06A
:103840009FC5C9B79384518583870400C5DF0307EB
:1038500004000DC30547A387E1846244F240D244CB
:103860004249B249056179B5938451858387040043
:10387000E9D3CDB7138941850307090049FBF9FB5B
:103880009389C1848387090085CB83070400C9F32A
:1038900083070900B5FF8387090089C70D47A38700
:1038A000E18465BF8387218589C71147A387E184A8
:1038B0006DB7A387018455B7EFF07F848387040039
:1038C000E9D749BF1D716AD86ED6370D0020B70DF4
:1038D0000020A2CCA6CACAC85EDE62DC86CECEC6F6
:1038E000D2C4D6C2DAC066DA9306C00393859D0BB4
:1038F0001305AD0B2380D5002300D5001386D1849A
:10390000138491849384B1841389E1849386C1964E
:1039100032CE2ECC2ACA22C826C623000900230094
:10392000060023000400238004009387C1961387B8
:10393000819A9386C603238007002300070085072A
:103940000507E39AF6FE814C2384018423850184D4
:10395000139B8C019307C003A384F180135B8B41FD
:10396000138C01934D4AB72500205A85938B419EB5
:10397000930DA005138D458F9304C003930A700225
:1039800013F4FC0FEFD02F95637E9A1103050C0002
:103990000307FCFF114E3307E5401353F74133474C
:1039A000E300330767406359EE00E24703870700EF
:1039B000631497002380670103830B000387FBFFD9
:1039C000914E3307E340135EF7413347EE00330770
:1039D000C74163D9EE00D2470387070063149700FD
:1039E000238067013387BC036A971A970347070050
:1039F0000DE71387FCFF3307B703838EFBFFB24746
:103A000003CE07006A977697034707003367C7011D
:103A100009E71307F4FF2380E7003387BC036A97A5
:103A20002A97034707000DE71387FCFF3307B70307
:103A3000830EFCFFC24703CE07006A9776970347C1
:103A400007003367C70109E71307F4FF2380E70086
:103A500003879180630F970463EB9A079387C1965E
:103A60003387970103070700630807249387819A28
:103A7000338797010307070063000724F24703C752
:103A8000070005072380E700850C139B8C01135B5F
:103A90008B415A85050C850B13F4FC0FEFD0AF83D7
:103AA000E3669AEFE30C0BFA03050C0003830B00AB
:103AB00015BFF547E3F297FB330565402547E34D16
:103AC000A7F81307F4FFA384E180E3F99AF9030749
:103AD000090019E3230069019307B003E316F4FA20
:103AE000C247814679468385070013850193EFC05D
:103AF0007F9EB24779468385070023ACA186814625
:103B00001385419EEFC01F9D938A418F03871A0042
:103B10008387418FBA97858723AEA1862383F1805F
:103B2000EFF0FFCA038691809307C00263CBC718EA
:103B30009387C18613870187854681451385418F09
:103B4000EFC0FF8437CB0000832B0B6A1309000002
:103B500013842191138ADA02CA890305040005043B
:103B6000EF60B074DE85EF60B035AA84AA854E851B
:103B7000EF602013A685AA892685EF60300BAA8501
:103B80004A85EF6000122A89E3198AFC37CA0000CF
:103B90008325CA694E85EF6060478325CA69AA8973
:103BA0004A85EF60A046CE85AA844E85EF60100856
:103BB000AA852685EF60D030832B0B6A23A2A186CD
:103BC00013090000138C3A0213848190CA890305FB
:103BD00004000504EF60706DDE85EF60702EAA842E
:103BE000AA854E85EF60E00BA685AA892685EF6041
:103BF000F003AA854A85EF60C00A2A89E3198CFC84
:103C00008325CA694E85EF6060408325CA69AA8909
:103C10004A85EF60A03FCE85AA844E85EF601001F3
:103C2000AA852685EF60D029032B0B6A23A0A186E5
:103C300013090000E50A1384E18FCA890305040013
:103C40000504EF609066DA85EF609027AA84AA8564
:103C50004E85EF600005A685AA892685EF60007D68
:103C6000AA854A85EF60E0032A89E3998AFC8325C7
:103C7000CA694E85EF6080398325CA69AA894A8559
:103C8000EF60C038AA84CE854E85EF60207AAA8581
:103C90002685EF60F02223AEA184F6406644D64428
:103CA0004649B649264A964A064BF25B625CD25CAC
:103CB000425DB25D2561828003070900E30C07E0E5
:103CC000E1B39387C186138701878546794681458D
:103CD0001385418FEFC0AFEBB5B51301019B130600
:103CE00000208145080823261164232481642322AF
:103CF000916423202165232E3163232C4163232AE1
:103D00005163232861632326716323248163232263
:103D100091632320A163232EB161EFC06FC213060C
:103D200000408145080CEFC0AFC137070020056691
:103D30001307C73D130686513A968347070093063B
:103D4000016105078607B69783D607A085062390ED
:103D5000D7A0E314C7FE0808100C9305E1202A87BA
:103D6000814601448357070011060907B387D7022C
:103D70008506232EF6FE3E94E316B7FE8147930692
:103D8000F00F21A08507638AD7140357050093F429
:103D9000F70F090565DB8356E1206395061470046F
:103DA0009306E00F93F5F60F63F4B4120355060083
:103DB00036887916FD167DD58507638D070D939797
:103DC0000501139B0401C183135B0B013EC463799E
:103DD000FB10130C1B00931B0C011C0C93DB0B0141
:103DE000931A2B00860BBE9A056D1C08BE9B930789
:103DF0008D518144930C0000014A01493EC631A017
:103E000003D70B00130C1B00890B83A70A003A99F8
:103E100042093E9AB247135909015285B389274195
:103E2000EF601055AA8D4A85EF609054AA856E8583
:103E3000EF60C01DAA8DC20933054441EF605053A5
:103E400093D909012A8D4E85EF609052AA856A8523
:103E5000EF60C01BAA856E85EF609006AA8D3305C2
:103E60003903910AEF607044EE85EF60205CEE85C7
:103E7000EF60C05BE685AA89EF60204A6355A00029
:103E80009374FB0FCE8CA247131B0C01135B0B0129
:103E9000E368FBF68320C16403248164268503293B
:103EA0000164832441648329C163032A8163832AD3
:103EB0004163032B0163832BC162032C8162832C3A
:103EC0004162032D0162832DC1611301016582806E
:103ED000E38295FC13F8F60FC5B59304F00F5DBFB0
:103EE00081444DBF9307E00FE386F4FA139B04016E
:103EF0009307F00F135B0B013EC4E1BD411106C6F1
:103F0000EFF0BFDD03C78180938761882380A7001E
:103F10006375E5002380E7003A8503C77180637508
:103F2000A7002380E7003A853707002005661307BE
:103F3000C73DB7260020130686519386468F3A96D2
:103F40008347070085060507B337F500B307F04040
:103F5000A38FF6FEE316E6FEB240410182803726CB
:103F600000209388418F138801931385419E014758
:103F7000130F468F930EA005130EC003B307D7038C
:103F800083850800830608000303050005078508EC
:103F900005080505FA97BE9523800500BE96238087
:103FA00006009A9723800700E31AC7FD83C661883D
:103FB0001306468F9305A0051305C0036F2090706C
:103FC000411122C626C493040014239E91809304B9
:103FD000C0122390918293048011239A91809304BC
:103FE000000F239F91802390018C9304905B239C6E
:103FF00091889304D007239B9188239A0188B7C3A3
:10400000000013040000938801AF23A881AE13853C
:1040100001AF03A7836BB7C2000023A6E1A203A7E9
:10402000C26B9387C1A2B7CF0000D8C303A70F6CA0
:1040300037CF0000B7CE0000D8C703274F6C37CE6C
:10404000000080C798CB03A78E6CD8CB03270E6ADD
:104050001386418A23A2880098CF9307603A23A44D
:1040600088002392F18A3244138301B19307401FE1
:104070002311F6002313060023A801B02322030016
:10408000A24441016F00D021411122C41384C18098
:104090001C4006C61307200298C313074002D8C36A
:1040A0001307500298C79306800401468145130503
:1040B0002002EF30A0781C40930680040146C843DC
:1040C0008145EF30A0771C402244B24088479306D8
:1040D00080040146814541016F304076011126CAB6
:1040E00022CC52C406CE4AC84EC601449384C18035
:1040F0000D4A9C40131924009379F40FCA97884302
:104100000504EF30900605C1E31544FF6547238899
:10411000E1808D49F24062444E85D2444249B24921
:10412000224A056182802145EFC00F8C9C40CA97CE
:104130008843EF30900379FD014429A81545EFC06D
:10414000AF8A138701810504834707004204418039
:104150006379F4009C40CA978843EF30100179DD01
:1041600055BFFD1793F7F70FA54663E3F600A94780
:104170002300F70045B78547630AF5002DED83C797
:10418000118185EF7D57A380E18A828083C71181E9
:10419000BDCF1387218A8347070093062003850735
:1041A000E207E18763C9F6082300F700138721813E
:1041B0008306070063C4F60682801387218A83473B
:1041C0000700FD17E207E18763C607042300F70035
:1041D0001387018A83060700E3D0D7FE93872181E6
:1041E00003C60700FD1601457D162380C700230086
:1041F000D7006F2070128947E310F5FC9387118177
:1042000083C607000547158F2380E7008280A380BF
:10421000A18A82802300070081475DBF9387018ABE
:1042200003C607008506014505062300D700238045
:10423000C7006F20700E2300D70093072003BDB77F
:1042400041119305F5FF22C406C626C293F5F50F6A
:1042500095472A8463FAB70205C19D476307F504B1
:10426000A2852244B240924437C6000013068676E7
:10427000014541016F20302637D60000130646EF76
:104280008545EF205025E9BFB7D40000138644EFE1
:104290000145EF20502493051400138644EF93F555
:1042A000F50F0145EF20302365BF37D60000130618
:1042B00046EF99450145EF2010225DB7397106DEC2
:1042C00022DC4ED626DA4AD852D456D25AD05ECE06
:1042D00062CC66CA6AC86EC6EFF05FE0EFF0BFE975
:1042E0009389218A1384018A8347040003C5090046
:1042F0001D8D1375F50FEFF0BFF483C71181638D2A
:10430000071C9384318A83870400639F071E93846C
:1043100021810344040083870400814563C8870426
:10432000B7C7000003AC076F31691309C96CB7CB7D
:104330000000B7CA0000A14763E387029317240077
:10434000CA979C43828783860188938C15001386C5
:104350008A74514593FCFC0FEF201062E685838739
:10436000040005041374F40FE3D787FCF250625481
:10437000D2544259B259225A925A025BF24B624CC1
:10438000D24C424DB24D216182808386218537C651
:104390000000938C15001306C673514593FCFC0F67
:1043A000EF20905DE68565BF8386918537C6000066
:1043B000938C150013060671514593FCFC0FEF20FA
:1043C000B05BE68569BF37C60000130686701945E5
:1043D000938C1500EF20505A03870900894793FCFE
:1043E000FC0F6305F71403AD81816A85EF6030052A
:1043F0001388FCFF2A86AE8685470D472DA80386C5
:104400000900054783C671886309E61437C60000B2
:104410001306C66F1945938C1500EF20F0550385E0
:10442000D18493FCFC0FEF50B0001388FCFF2A8668
:10443000AE868D47094793150801C1811305C00356
:10444000EF205013E68521BF37C600001306466FE4
:104450001945938C1500EF2030520385F18493FCAD
:10446000FC0FEF50E07C1388FCFFAE86931508012B
:104470002A86C181894715477945EF20B00FE68527
:10448000F9BD8386E18437C60000938C15001306BE
:104490008672514593FCFC0FEF20104EE685C1B5A6
:1044A0008386A18537C60000938C15001306C6715C
:1044B000514593FCFC0FEF20304CE6854DB58386CB
:1044C000D184938C150013868B75514593FCFC0F9A
:1044D000EF20904AE68561B5038709009384318A0D
:1044E0008387040029E3C1CB6254F250D25442596D
:1044F000B259225A925A025BF24B624CD24C424D54
:10450000B24D21616FF0BFA50145EF20E0601305BA
:10451000100A23800400EF2040521305800CEF2086
:10452000C05183870400E38407DE7DBF938D118A29
:1045300003850D0003AD8181E30905EAEF60E056D4
:10454000E285EF50B06EAA856A85EF5080752A8D9E
:1045500023ACA18023800D0049BD1387118A030677
:104560000700E30506EAB29693F6F60FA383D18817
:104570002300070061BD0145EF20005A1305000C20
:10458000EF20A04B1305000AEF20204B8547238026
:10459000F40099BF2A86130500106F30B00741114F
:1045A00022C4930600312A84014685453D4506C64E
:1045B000EF30C028A285014613050030EF3090058A
:1045C000930600310146854513053002EF30002780
:1045D000A285014613051030EF30D0039306003159
:1045E000014685451305B002EF304025A2850146FE
:1045F00013053030EF301002014685451305A00247
:1046000093060031EF308023A2852244B240014658
:104610001305203041016F30E07F011122CC26CA02
:104620004AC84EC606CEAA892E89B28436846355FE
:10463000A0063D458545EF300031CE85130500309D
:10464000EF30B01C63460906130530028545EF3094
:10465000802FCA8513051030EF30301B63C7040666
:104660001305B0028145EF30002EA68513053030CA
:10467000EF30B0196358800681451305A002EF3072
:10468000802CA2856244F240D2444249B2491305CB
:10469000203005616F30701781453D45EF30A02A0D
:1046A000B305304113050030EF303016E35E09F8F2
:1046B000814513053002EF300029B3052041130571
:1046C0001030EF309014E3DD04F885451305B00297
:1046D000EF306027B305904013053030EF30F01213
:1046E000E34C80F885451305A002EF30C025B305E3
:1046F000804049BF9387418A03976700B326E00053
:104700002393D7006348E00083952700130500102A
:104710006F30B00F83950700130500106F30F00E57
:1047200001114AC80329C50106CE22CC26CA4EC6AD
:1047300052C456C22A84232024032E85EF602050C1
:10474000B7C7000003A6877883A6C778EF40700834
:104750002A8A4A85AE8AEF60804EB7C7000003A65A
:10476000077983A64779EF40D0062A86AE86528520
:10477000D685EF303076EF604057B7C7000083A989
:10478000C776AA84CE85EF505039634CA000B7C7D6
:10479000000083A907772685CE85EF507040635AC5
:1047A000050A232E3401CE84CA852685EF50507128
:1047B000B7C700008329840203AAC7772A8948D093
:1047C000D2854E85EF507035634CA000B7C700000E
:1047D00003AA07784E85D285EF50903C63540500BC
:1047E000232444030C402685B7C40000EF50104436
:1047F00083A54478EF5090434C40AA894A85EF50F6
:10480000F04283A54478EF507042AA854E85EF5060
:104810004049B7C7000003A98777AA84CA85EF502B
:10482000D02F634CA000B7C7000003A947772685A7
:10483000CA85EF50F03663530500CA8444D4F24071
:10484000624426854249D244B249224A924A0561CD
:10485000828044CC91BF79714AD05AC80329C500DF
:10486000032B050122D426D24ECE06D652CC56CAF0
:104870005EC662C42A84232A64013385C540232886
:104880002401EF608022B7C7000083A98779AA843A
:10489000CE85EF509028634CA000B7C7000083A9D5
:1048A000C7792685CE85EF50B02F6356050E232697
:1048B0003401130C0000CE8403958189B7C9000030
:1048C000EF60A01E83A5C97AEF5040742A8A039531
:1048D000618923204401EF60401D83A5C97AEF5010
:1048E000E072AA8B0395418923227401EF60E01BDB
:1048F00083A5C97AEF508071AA8A08C4E2855E85D3
:10490000EF50D032A685EF507032CA85AA8908CC04
:104910004A85EF500039AA852685EF50705ADA850E
:10492000EF502038D685EF507030CA85AA8A268588
:10493000EF501059D285EF50702FCE85EF50603672
:10494000AA855685EF50E0354C4CEF508035B7C7FF
:10495000000003A9077AAA84CA85EF50101C634C93
:10496000A000B7C7000003A9477A2685CA85EF5083
:10497000302363520504232E2401CA84B2502254EA
:10498000268502599254F249624AD24A424BB24BAE
:10499000224C45618280B7C7000083A5877A1395B2
:1049A000140044C40581EF50B01F13250500EF60CB
:1049B000C00F2A8C11B744CCD1B7930700005CC557
:1049C0001CC95CC95CCD1CC15CC11CC51CCD1CD103
:1049D0008280011122CC52C4138401B12A8A50C4AE
:1049E0002314B400231544010D8D06CE26CA4AC8EF
:1049F0004EC6328956C2AE84EF60200BB7C70000A6
:104A000083A5877BAA8A4A85EF505022AA89AA8566
:104A10005685EF50F04AEF60200313190501135932
:104A200009412310240133059A00EF600008AA858C
:104A30002A8A4E85EF50E026EF60000193140501AD
:104A4000C184CE85231194005285EF507047EF50FA
:104A5000B07F131A0501135A0A41CE85231244016F
:104A60005685EF500024EF50307E42054185529923
:104A7000AA941357F90193D7F4014A97A69705878B
:104A800085872313A4002318E4002319F400F240BF
:104A90006244D2444249B249224A924A0561828024
:104AA000930700001CCD1CC95CC95CC55CCD82802D
:104AB000797122D44ECEB2890396018426D25EC685
:104AC000AE8493150501C185138501A606D613840E
:104AD00001844AD052CC368956CA5AC862C466C2CA
:104AE0006AC0EFF05FD70316240093950401138585
:104AF00041A8C185138B41A8EFF0FFD503164400F0
:104B000093950901C185138581AAEFF0DFD40316BF
:104B1000640093150901C1851385C1ACEFF0BFD3C3
:104B20000395E18937CD0000EF5080102A89039565
:104B3000A189AE89EF50C00F2A8A0395C189AE8A38
:104B4000EF50000F2A8C0325CB01AE8CEF60200FB5
:104B500003260D7B83264D7BEF30D0374A86CE86E9
:104B6000EF3050376286E686EF30D036EF50C00522
:104B7000131705018967938707F441873E8B63C349
:104B8000E7002A8B938481AAC84C420B135B0B412C
:104B9000EF60E00A03260D7B83264D7BEF309033D8
:104BA0004A86CE86EF40700E5286D686EF40F00DD4
:104BB000EF5080011317050189674187938707F438
:104BC000AA8463D3E700BE841384C1AC484CC204FA
:104BD000C184EF60C00603260D7B83264D7BEF303A
:104BE000702F4A86CE86EF30F02E6286E686EF4042
:104BF000D009EF40707D13170501896741879387BE
:104C000007F42A8463D3E7003E84938B01A603A5AF
:104C1000CB0142044184EF60800203260D7B832692
:104C20004D7BEF30302B4A86CE86EF401006D6867D
:104C30005286EF30302AEF4030799316050109672C
:104C4000C186130707F4AA876353D700BA87139561
:104C50000701797741851307070C6354E500BA878C
:104C60003A852396F18AF9779387070CDA8563539F
:104C7000FB00BE852397B18AF977C2059387070C9D
:104C8000C185268663D3F4003E862398C18AF977CE
:104C900042069387070C418622876353F4003E87C0
:104CA0002254B25092540259F249624AD24A424BBB
:104CB000B24B224C924C024D931607012399E18A84
:104CC000C18645616FF07F95730020300945EF0084
:104CD000D02785476304F50073002030EF10F04CB7
:104CE0000945EF007028730020301145EF00D027F0
:104CF00073002030730020307300203073002030A8
:104D000073002030730020309387418B03D7070056
:104D1000411122C6373401400507930500081305E9
:104D200004C02390E700EF10A03009E532444101B0
:104D300073002030130504C093050008EF10003104
:104D40003244410173002030411122C63734014002
:104D50008545130504C0EF10A02D09E5324441013B
:104D600073002030130504C08545EF10202E6529FF
:104D70003244410173002030411122C637340140D2
:104D800093050004130504C0EF10802A11ED373499
:104D9000014093050002130504C0EF10602905E5EA
:104DA0003244410173002030130504C09305000410
:104DB000EF10C0293734014093050002130504C0E9
:104DC000EF10002771DD130504C093050002EF10FA
:104DD000E0273244410173002030411122C63734AC
:104DE00001408945130504C0EF1080240DED3734D0
:104DF00001409145130504C0EF10802331E13734A1
:104E00000140A145130504C0EF10802239E5373475
:104E10000140C145130504C0EF10802121ED32444B
:104E2000410173002030130504C08945EF100022B2
:104E3000373401409145130504C0EF10601F61D164
:104E4000130504C09145EF10602037340140A1459F
:104E5000130504C0EF10C01D5DD9130504C0A145A2
:104E6000EF10C01E37340140C145130504C0EF10D8
:104E7000201C55D5130504C0C145EF10201D324438
:104E8000410173002030854537050040EF10401A7E
:104E900019E173002030854537050040EF10001BF5
:104EA00073002030411122C63704004085451305A8
:104EB000044026C44AC24EC0EF10801701E93244B4
:104EC000A2441249824941017300203085451305EF
:104ED0000440EF10A017EFB06FB98397A18ABDE32C
:104EE0009387018483990184839447000399270061
:104EF00003946700338699001357F601B3068900BF
:104F0000329793D7F601B697058733852901239504
:104F1000E188858726952396F1882295EF50F03811
:104F2000B7C7000083A5C77BB38434413304244151
:104F3000EF50C04FEF5050312397A18823989188AC
:104F400023998188EF10807B0395218D1384C1A262
:104F5000EF50B035B7C7000083A5077CEF50000BBA
:104F60000C58EF40105408D83244A24412498249E8
:104F7000410173002030411122C63714004085459D
:104F800013050480EF10C00A09E5324441017300A3
:104F90002030130504808545EF10400B3244410159
:104FA0007300203073002030411122C63744004086
:104FB0009305505213050440EF10002209E53244D6
:104FC0004101730020301305044093055052EF1047
:104FD0002025EF1000773244410173002030730028
:104FE00020300965EF00806B85476304F50073008E
:104FF00020300965EF00E06CEF10901C730020304A
:105000007300203001A0411106C622C4EF201023F6
:10501000EF300053EFE0DFFAEF10F034EFF0CF861F
:105020001165130585A9EFF08FD7EFB04FA103D518
:10503000618A93052003EFF0EFD5EF10700EA945BC
:105040000145EF2070240145EF10102D0145EF20A0
:10505000902183C7418D93F7F70FE5DF238A018CF9
:10506000EFE0DFE9EFE01F86EFF04FA5DDB7038744
:105070009180411106C622C426C29307D00263D88C
:10508000E70403A5C185EF50903BB7D7000003A606
:10509000078083A647802A84AE84EF30306863435C
:1050A0000504B7D7000003A6878083A6C7802285A2
:1050B000A685EF30B066635C0500B7C7000083A526
:1050C000877F03A50186EF50A02D6346050403D713
:1050D00041812390E18C239F018AB2402244924473
:1050E00041018280B7C7000083A5077F03A5018621
:1050F000EF50002BE35705FAB7C7000083A5477FA1
:1051000003A54186EF50C029E35D05F803D7C181AF
:105110002390E18CD9B703D70182B2402244239077
:10512000E18C239F018A9244410182800397E188A8
:105130009307700C294563D1E7049307001463CEED
:10514000E7029307C012930687F363CAE704930745
:10515000801163DBE70613D526402905420541850A
:1051600082809307B01763D7E708AD473345F50250
:1051700013053502420541858280930730151305DA
:1051800007EC63DBE70293077016E3CCE7FC9D476F
:105190003345F5021305350242054185828013959A
:1051A000160036950E053695930780073345F502B0
:1051B000290542054185828095473345F50213054F
:1051C000350242054185828093971600B6978E0777
:1051D00013064010B6976347E6029306000F63DBA1
:1051E000E6021305C003B3C7A7021385A700420553
:1051F00041858280A5473345F502130535024205F6
:10520000418582801305000533C5A70229054205A3
:105210004185828013058002B3C7A7021385A700CA
:1052200042054185828001111307000006CE22CC81
:1052300026CA4AC823ACE18A52C656C45AC25EC0C6
:10524000EFF04FCBEFF0BFE2B7C7000003A9C18575
:1052500083A4477F4A85A685EF50200C6342A016A1
:10526000CA854A85EF50801C2A8B0394018C2285C5
:10527000EF40101CAE8A83A581812A8A5A85EF509F
:10528000E01AEF50D01BB7C7000003A6877E83A6A5
:10529000C77EEF3010542A8B0395E181AE8B330526
:1052A000A440EF40F0182A86AE865A85DE85EF309E
:1052B00050522A86AE865285D685EF40001DEF40BB
:1052C000B0102394A188EFF07FE61384C18B2310E4
:1052D000A40029461385C18B93058002EFA03FF4FB
:1052E00003879180831704006358F7009307F7FF43
:1052F000C207C1872310F4001387418FBA97038533
:105300000700130535FDEF50407AAA851385C1A229
:10531000EFF00FC18397A18A639A070E8397E18804
:105320001384C1A21307E01544546352F706B7C7AC
:10533000000003AAC77C2685D285EF40107E63500B
:10534000A00ED2840395818844D426868145EFF04F
:105350004FE8239D018883C77188239E0188239F7E
:105360000188B5C7938701B16244F240D2444249F3
:10537000324AA24A124B824B83966700039647003B
:1053800083952700039501B105616FF06FF2130754
:10539000C0126351F70AB7C7000003AA477D2685EC
:1053A000D285EF409077E34EA0F8B7C7000003AA7C
:1053B000077D2685D285EF40B07EE34405F859B7D6
:1053C000B7C7000003AB477C23AE918479BD13853A
:1053D00001A6EFF08FDE138541A8EFF00FDE1385F5
:1053E00081AAEFF08FDD1385C1ACEFF00FDD6244D1
:1053F000F240D2444249324AA24A124B824B814681
:1054000001468145014505616FF02FA11384C1A2BA
:105410005054839581880145EFF0AFDB1DBFB7C7BE
:10542000000003AA877C2685D285EF407077E34A87
:1054300005F009BF1307A00F6357F702B7C70000B5
:1054400003AAC77D2685D285EF40306DE34BA0EEE1
:10545000B7C7000003AA877D2685D285EF40507428
:10546000E34105EEC5B5B7C7000003AA477E268510
:10547000D285EF40906AE346A0ECB7C7000003AACC
:10548000077E2685D285EF40B071E34C05EA5DBD0D
:1054900097B1FF1F9381814217010020130181B64C
:1054A000178500001305C5AE97B5FF1F938585B519
:1054B0001386018463FAC5008322050023A05500EA
:1054C00011059105E3EAC5FE1385018497E5FF1FE9
:1054D000938505956377B500232005001105E36DDD
:1054E000B5FE9302800873A0023097B2FFFF93824B
:1054F000E2B493E2120073905230EF30800C9702C6
:105500000000938282B073901234730020301C41EB
:1055100041677917F98F1CC123200500232205005C
:1055200023240500B70702402326050013878700C0
:105530006306E5061387C701630DE50413870703B8
:105540006309E50613874704630CE506138787059F
:10555000630BE5041387C7066309E506138707088D
:10556000630AE50813878740630CE5081387C74182
:105570006303E50693870743630BF508B70702400B
:10558000138747446300E50A13878745630CE504E6
:105590008280D8431367070FD8C38280D84313672C
:1055A000F700D8C38280D843B7060F00558FD8C301
:1055B0008280D8438566938606F0558FD8C3828053
:1055C000D843BD66558FD8C38280D843B706F00054
:1055D000558FD8C3828003A747401367070F23A2C4
:1055E000E740828003A74740B7060F00558F23A2EC
:1055F000E7408280D843B706000F558FD8C382801A
:1056000003A747401367F70023A2E7408280B7074C
:10561000024003A747408566938606F0558F23A274
:10562000E740828003A74740BD66558F23A2E7402D
:10563000828090519C459449D84983A88501D18F97
:10564000D58FD04DD451D98FB3E71701184103A896
:105650008502D18FD58FE176BD06D045758FB3E732
:1056600007019441D98F1CC1DC4150C114C55CC5F0
:1056700082801C4189C593E717001CC18280416765
:105680007917F98F1CC182801C4101C6DD8D0CC1C8
:10569000828093C5F5FFFD8D0CC182809317350084
:1056A00063DA0700B707024083A707407D8D3335D3
:1056B000A0008280B70702409C437D8D3335A00057
:1056C00082809317350063D70700B707024023A2F3
:1056D000A7408280B7070240C8C3828058410C416E
:1056E0000328C500B7060140938706403E9713C6BE
:1056F000F5FF6301080483A80640032885004143A1
:10570000B3F8C80023A01641D443758ED0C3144308
:10571000D58D0CC3184190479346F7FF758E90C7FF
:10572000D047F18ED4C7630B6800C2979443558F5E
:1057300098C382801C437D8E10C382809447D98E8B
:1057400094C7D447558FD8C78280B70701401387C5
:10575000074083A70740584B698F09C77D8D3335B4
:10576000A000828001458280B707014023AAA7409C
:10577000828003A88500937708011373F80081C71E
:10578000DC413363F30083D6050093F7F60FA1CB1A
:105790000C418147854EBD4F130F80029302800458
:1057A000214E21A08507638BC7033397FE0033F694
:1057B000E600E319C7FE13962700B398CF0093C8FD
:1057C000F8FFB3F5B8003316C300D18D6309E807BD
:1057D000E31A58FC18C98507E399C7FD0CC1930764
:1057E000F00F63FDD70483284500A147854EBD4FC8
:1057F000130F800293028004414E21A08507638D20
:10580000C7033397FE00B3F5E600E319B7FE13961E
:1058100027000116B395CF0093C5F5FFB3F8150126
:105820003316C300B3681601630DE801E31858FC92
:1058300018C98507E397C7FD23221501828058C93F
:1058400095B758C965BF19C20CC982804CC98280FE
:10585000B70701406348050637073000DC4393165D
:1058600005013376E500C1826308E6061317B5002B
:10587000635C0702135705011376F7000D473317D2
:10588000C7001347F7FF7D8FB707000FD98F99C562
:10589000135755011207B396E600D58F370701401D
:1058A000634005025CC3828013575501120733978A
:1058B000E6001347F7FF7D8FB707000FD98FC1BFF1
:1058C0005CCF828037073000DC4F931605013376BA
:1058D000E500C182E31CE6F83708014003264800D2
:1058E000370700F17D17798EF98F2322C80045B75D
:1058F00093F7C50F370701403E978D8914478A05F6
:10590000BD47B397B70093C7F7FFF58F1CC71C4778
:10591000B315B500DD8D0CC78280B7E700E0B44752
:1059200003460500898A85CA03472500B2971207F6
:105930001377F70F2380E7405441054793575600EC
:105940003317C700A1C2938707048A07B7E600E0B0
:10595000B69798C38280B847098B79FF0347250023
:1059600083451500854612076386D5021377F70F26
:10597000B2972380E74054410547935756003317A9
:10598000C700F1F2938707068A07B7E600E0B697EB
:1059900098C38280136707F81377F70FB2972380B5
:1059A000E74059BF371702405C439146B18B63858E
:1059B000D700A1466385D706B7177A0093870720DB
:1059C0001CC1371602405442370700201307070056
:1059D0009182BD8ABA9683C60600B3D7D7005CC150
:1059E0005442A1829D8ABA9683C60600B3D6D700D8
:1059F00014C55442AD829D8A369703470700B3D73A
:105A0000E7005CC55842398393763700138741829B
:105A1000369703470700B3D7E7021CC982805C436F
:105A20005443C983BD8B1396F6008907635F060054
:105A300058439316E70063CA060037177A00130726
:105A40000720B387E7021CC1ADBF37173D0013071E
:105A50000790B387E7021CC1ADB799C5371702405D
:105A60005C4B5D8D48CB8280B7170240D84B134505
:105A7000F5FF798DC8CB828099C5371702401C4F3E
:105A80005D8D08CF8280B7170240984F1345F5FF10
:105A9000798D88CF828099C5371702405C4F5D8D24
:105AA00048CF8280B7170240D84F1345F5FF798D54
:105AB000C8CF828003D6250083D7050003D74500D1
:105AC00083D6650083D88500D18F03D8A500D98FF0
:105AD000D58F03D7C500B3E717010356050083D65A
